:100000000C94F3000C9414010C9414010C9414013E
:100010000C9414010C9414010C9414010C9414010C
:100020000C9414010C9414010C9414010C941401FC
:100030000C9414010C9414010C9414010C941401EC
:100040000C9414010C9414010C9414010C941401DC
:100050000C9414010C9414010C9414010C941401CC
:100060000C9414010C9416010C944D010C94140181
:100070000C9414010C9414010C9414010C941401AC
:100080000C9414010C9414010C9414010C9414019C
:100090000C9414010C9414010C9414010C9414018C
:1000A0000C9414010C9414010C9414010C9414017C
:1000B0000C9414010C9414010C9414010C9414016C
:1000C0000C9414010C9414010C9414010C9414015C
:1000D0000C9414010C9414010C9414010C9414014C
:1000E0000C9414016E616E00696E660000407A1017
:1000F000F35A00A0724E18090010A5D4E80000E8D9
:100100007648170000E40B54020000CA9A3B000036
:1001100000E1F505000080969800000040420F00C5
:100120000000A08601000000102700000000E80386
:10013000000000006400000000000A000000000051
:100140000100000000002C76D888DC674F0823DF10
:10015000C1DFAE59E1B1B796E5E3E453C63AE651E3
:10016000997696E8E6C28426EB898C9B62ED407C0A
:100170006FFCEFBC9C9F40F2BAA56FA5F490055AA6
:100180002AF75C936B6CF9676DC11BFCE0E40D47CB
:10019000FEF520E6B500D0ED902E030094357705EE
:1001A0000080841E080000204E0A000000C80C33A6
:1001B0003333330F986E12831141EF8D2114893B35
:1001C000E65516CFFEE6DB18D1844B381BF77C1DB5
:1001D000901DA4BBE424203284725E228100C9F108
:1001E00024ECA1E53D2711241FBECFEFD1E2DEBFF5
:1001F000CDBF00E00CBF12E0A0E0B2E0ECE4F4E11F
:1002000000E00BBF02C007900D92A831B107D9F7EB
:1002100013E0A8E1B2E001C01D92A43AB107E1F7F2
:100220000E941C070C94240A0C9400001F920F9249
:100230000FB60F9211240BB60F922F933F934F934B
:100240005F938F939F93EF93FF932091C000309122
:10025000C600287180911A028F5F90E040911902C8
:1002600050E08417950739F080931A02FC01E35E91
:10027000FD4F308301C022E020931802FF91EF91DF
:100280009F918F915F914F913F912F910F900BBE56
:100290000F900FBE0F901F9018951F920F920FB6E0
:1002A0000F9211240BB60F928F939F93EF93FF93AE
:1002B00090911C0280911B02981779F080911B028B
:1002C00090E001968F77992780931B02FC01E35EF3
:1002D000FC4F80818093C60005C08091C1008F7D56
:1002E0008093C100FF91EF919F918F910F900BBE72
:1002F0000F900FBE0F901F90189510921C02109235
:100300001B0210921A021092190297FF04C022E0F9
:100310002093C0009F779093C5008093C40088E924
:100320008093C10086E08093C200089590911A02E4
:1003300080911902981791F0809119028F5F90E0D7
:1003400080931902FC01E35EFD4F20818091180229
:1003500090E0982F8827820F911D089580E091E00A
:10036000089590911A0280911902981779F0E091FE
:100370001902EF5FF0E0E35EFD4F208180911802EB
:1003800090E0982F8827820F911D089580E091E0DA
:10039000089520911C0230E02F5F3F4F2F773327C5
:1003A00040911B0250E024173507D1F3F901E35EB9
:1003B000FC4F808320931C028091C1008062809357
:1003C000C1000895CF93DF93EC018991882319F040
:1003D0000E94C901FACFDF91CF910895CF93DF93A7
:1003E000FC018491EF012196882321F00E94C9012C
:1003F000FE01F7CFDF91CF91089580911A0290917D
:100400001902891B90E008958091190280931A02C5
:100410000895CF92DF92EF92FF920F931F93CF93A5
:10042000DF93CDB7DEB7CE010C96FC01C190D19021
:100430007F0190E0292F30E0F601E20FF31F808169
:10044000882311F09F5FF6CFC901880F991F0E9482
:1004500049078C01A701B6010E949C09C8010E94AE
:10046000E201C8010E94DE07DF91CF911F910F9139
:10047000FF90EF90DF90CF900895789483E390E021
:100480000E947D0110929F0310929E0310929D0383
:10049000E0E0F0E083E0858314820E94D802E091DE
:1004A0009D03F0919E03108211828BE092E09F9356
:1004B0008F9380E192E09F938F930E9409020F90A7
:1004C0000F900F900F9081E00895CF92DF92EF92FE
:1004D000FF920F931F93CF93DF9300D0CDB7DEB77A
:1004E000CE0101967C0100E010E06C010E94FD014C
:1004F000892B31F4EFE1FEE43197F1F700C0000001
:100500000E949601F70181937F018D3229F4F60153
:10051000E00FF11F108205C00F5F1F4F0330110560
:1005200029F789818335D1F050F4843491F08534F2
:1005300029F581E080939F031F928AED21C08435C5
:1005400099F08635D9F4E0919D03F0919E03808166
:1005500010C010929F031F928BED12C0E0919D037B
:10056000F0919E03848105C0E0919D03F0919E036C
:1005700085811F928F9386E092E005C01F928FEED7
:100580008F9385E192E09F938F930E9409020F90D1
:100590000F900F900F900F900F900F90DF91CF91D1
:1005A0001F910F91FF90EF90DF90CF900C94040279
:1005B0002FEF87EA91E6215080409040E1F700C09C
:1005C00000000895BF92CF92DF92EF92FF920F93B7
:1005D0001F93CF93DF9300D01F921F92CDB7DEB74A
:1005E000209A25E025BD16BC409826B5203AE8F3B0
:1005F00022E025BD16BC409A2098309B05C026B548
:100600002C33D8F380E064C016BC309904C026B502
:100610002436D8F3F7CF16BC309B04C026B5243659
:10062000D8F3F0CFDE011196FD01C12CD12C76015B
:10063000C3941A2F05E00A0F27E030E016BC30996A
:1006400004C046B54634D8F3DDCF16BC309B04C099
:1006500046B54A35D8F3D6CF46B55CEE540F503187
:1006600070F4B701A601022E04C0440F551F661F87
:10067000771F0A94D2F740955081452310C04C5300
:10068000453108F0BFCFB080B701A601022E04C0EB
:10069000440F551F661F771F0A94D2F74B294083DA
:1006A0002150310958F631960E13C6CF3A8129816F
:1006B000230F3B81230F3C81230F3D812313A2CFC6
:1006C000FC0184E0810F9D9191938A13FCCF81E01E
:1006D0000F900F900F900F900F90DF91CF911F917F
:1006E0000F91FF90EF90DF90CF90BF9008952F92E1
:1006F0003F924F925F926F927F928F929F92AF92B2
:10070000BF92CF92DF92EF92FF920F931F93CF93FE
:10071000DF93CDB7DEB763970FB6F894DEBF0FBE99
:10072000CDBF6C014B012A01FC0117821682838127
:1007300081FF43C3AE014F5F5F4F3A01F6019381E2
:10074000F40193FD859193FF81914F01882309F472
:1007500030C3853239F493FD859193FF81914F0128
:10076000853239F4B60190E00E94640952012501F6
:10077000E5CF10E0F12C20E02032A0F48B3269F0BC
:1007800030F4803259F0833269F420612CC08D320C
:1007900039F0803339F4216026C02260246023C000
:1007A000286021C027FD27C030ED380F3A3078F49B
:1007B00026FF06C0FAE01F9F300D1124132F13C02F
:1007C0004AE0F49E300D1124F32E20620CC08E32CC
:1007D00021F426FDEEC2206406C08C3611F4206898
:1007E00002C0883641F4F40193FD859193FF819115
:1007F0004F018111C1CF9BEB980F933018F420610A
:10080000805E06C09BE9980F933008F071C12F7E7F
:1008100026FF16E02F73322E853619F42064322E0F
:1008200008C0863621F4F22FF0683F2E02C0111165
:10083000115037FE07C01C3350F4EE24E394E10E50
:1008400027E00BC0183038F027E017E005C027E09C
:100850004CE3E42E02C0212FE12C520144E0A40E0F
:10086000B11CF20160817181828193810E2DA301FF
:100870000E9476082C01098100FF02C003FF07C017
:1008800031FC08C032FE09C030E2232E07C02DE241
:10089000222E04C09BE2292E01C0212C802F8C70B7
:1008A00019F0211068C2A8C237FE0FC0E40C04FF83
:1008B00004C08A81813309F4EA941E1474F5F8E0C7
:1008C000FE1578F588E0E82E2CC036FC2AC0812F72
:1008D00090E0841595059CF02CEF42162FEF520600
:1008E00074F0432D4068342E0AC0E2E0F0E0EC0FD3
:1008F000FD1FE10FF11D8081803319F4115011119A
:10090000F4CF37FE0EC0EE24E394E10E812F90E089
:10091000481659062CF4141904C0EE24E39401C0BF
:1009200010E037FE06C01414150434F4C201019619
:1009300005C085E090E002C081E090E021100196C2
:10094000112331F0212F30E02F5F3F4F820F931F93
:100950002F2D30E08217930714F4F81A01C0F12C00
:10096000832D897049F4FF2039F0B60180E290E0D0
:100970000E946409FA94F7CF222029F0B601822D53
:1009800090E00E94640933FC09C0FF2039F0B601F1
:1009900080E390E00E946409FA94F7CF37FE5AC0D2
:1009A000942D852D57FE02C090E080E0292E382E30
:1009B00020E030E0A2014E1951095D874C87A20169
:1009C000421953095F874E87612F70E044275527EE
:1009D000461B570B598B488B5FEF2516350649F49C
:1009E000B6018EE290E02A8B3B8B0E9464093B8922
:1009F0002A89421453046CF04C855D8542155305D9
:100A000044F4EE85FF85E20FF31FE60DF71D8181AB
:100A100001C080E351E0251A31082F5F3F4F48891C
:100A20005989241635064CF0B60190E02A8B3B8B91
:100A30000E9464092A893B89CFCF2414350439F4F4
:100A40009A81963318F4953311F404FF81E3B601CB
:100A500090E04BC08A81813309F00F7EB60190E0AF
:100A60000E946409111105C034FC18C085E690E0AD
:100A700017C0B6018EE290E00E94640982E0EE2485
:100A8000E394E80EF301E80FF11D8081B60190E0D8
:100A90000E94640911508E2D91F7E6CF85E490E015
:100AA000B6010E94640957FC05C04114510439F491
:100AB00004FF05C05194419451088DE201C08BE2BE
:100AC000B60190E00E94640980E39AE0491651045F
:100AD0002CF08F5F5AE0451A5108F7CFB60190E02D
:100AE0000E946409B601C201C0960E94640957C100
:100AF000833631F0833779F0833509F058C021C04F
:100B00005201E2E0AE0EB11CF2018081898301E066
:100B100010E0230114C05201F2E0AF0EB11CF2014B
:100B20004080518026FF03C0612F70E002C06FEF4C
:100B30007FEFC2012A8B0E9459098C012A892F77E5
:100B400015C05201F2E0AF0EB11CF201408051809D
:100B500026FF03C0612F70E002C06FEF7FEFC2017C
:100B60002A8B0E944E098C012A892068322E23FD8F
:100B70001AC08F2D90E008171907A8F4B60180E27B
:100B800090E00E946409FA94F4CFF20137FC859159
:100B900037FE81912F01B60190E00E946409F110A7
:100BA000FA94015011090115110579F7F8C084363E
:100BB00011F0893659F5520127FF09C0F4E0AF0E54
:100BC000B11CF20160817181828193810AC0F2E0DF
:100BD000AF0EB11CF20160817181882777FD80958D
:100BE000982F2F76322E97FF09C09095809570959B
:100BF00061957F4F8F4F9F4F2068322E2AE030E063
:100C0000A3010E94C609E82EE6183FC0022F8537CF
:100C100021F40F7E2AE030E01DC0097F8F3691F06D
:100C200018F4883559F0C5C0803719F0883711F0AD
:100C3000C0C0006104FF09C0046007C024FF08C0F1
:100C4000066006C028E030E005C020E130E002C0C8
:100C500020E132E0520107FF09C0F4E0AF0EB11C01
:100C6000F201608171818281938108C0F2E0AF0E50
:100C7000B11CF2016081718180E090E0A3010E94CB
:100C8000C609E82EE6180F77302E36FE0BC0332D3E
:100C90003E7FE11650F434FE0AC032FC08C0332D0A
:100CA0003E7E05C00E2D332D03C00E2D01C0012F39
:100CB00034FF0CC0FE01EE0DF11D8081803311F474
:100CC000397E08C032FF05C00E5F04C0832F8678CE
:100CD00009F00F5F33FD13C030FF06C01E2D0F1546
:100CE00018F41F0D101B0F2D0F1568F4B60180E2CC
:100CF00090E03B8B0E9464090F5F3B89F5CF0F1595
:100D000010F4F01A01C0F12C34FF12C0B60180E3D8
:100D100090E03B8B0E9464093B8932FF17C031FD94
:100D200003C088E790E002C088E590E0B6010CC0FF
:100D3000832F867859F031FF02C08BE201C080E238
:100D400037FD8DE2B60190E00E946409E11638F4A7
:100D5000B60180E390E00E9464091150F7CFEA9455
:100D6000F301EE0DF11D8081B60190E00E9464094F
:100D7000E110F5CF14C0F4E0FF1558F584E0F81A3F
:100D800033FE1EC0211026C003FF2AC004EE10E06F
:100D9000F32DF0713F2EF8018491811124C0FF20C2
:100DA00009F4E5CCB60180E290E00E946409FA946F
:100DB000F6CFF6018681978126C08FEF9FEF23C083
:100DC000B60180E290E00E946409FA94F110F8CF35
:100DD000D9CFF12CB601822D90E00E946409D4CFC6
:100DE00008EE10E0D5CF31108052B60190E00E949D
:100DF00064090F5F1F4FCFCF23E02F1510F483E05E
:100E0000BECFF12CC1CF63960FB6F894DEBF0FBEF4
:100E1000CDBFDF91CF911F910F91FF90EF90DF90A9
:100E2000CF90BF90AF909F908F907F906F905F908A
:100E30004F903F902F900895CF93DF930E943D02F3
:100E4000882311F1C6E0D2E080919D0390919E032A
:100E50000E94E2020E94FD01892B11F00E946502AE
:100E600080919F03882381F3E0919D03F0919E037D
:100E700080811F928F93DF93CF930E9409020F907E
:100E80000F900F900F90E0CF80E090E0DF91CF9136
:100E90000895CF93DF938230910510F482E090E0C3
:100EA000E091A203F091A30320E030E0C0E0D0E0A5
:100EB000309711F14081518148175907C0F0481708
:100EC000590761F482819381209719F09B838A836B
:100ED0002BC09093A3038093A20326C02115310554
:100EE00019F04217530718F49A01BE01DF01EF0110
:100EF0000280F381E02DDCCF2115310509F1281B9B
:100F0000390B2430310590F412968D919C911397F2
:100F10006115710521F0FB019383828304C09093D6
:100F2000A3038093A203FD01329644C0FD01E20FAA
:100F3000F31F81939193225031092D933C933AC032
:100F40002091A0033091A103232B41F420910202B0
:100F5000309103023093A1032093A003209100025B
:100F6000309101022115310541F42DB73EB7409172
:100F7000040250910502241B350BE091A003F0916F
:100F8000A103E217F307A0F42E1B3F0B2817390724
:100F900078F0AC014E5F5F4F2417350748F04E0FD5
:100FA0005F1F5093A1034093A0038193919302C0CC
:100FB000E0E0F0E0CF01DF91CF9108950F931F9310
:100FC000CF93DF93009709F48CC0FC013297138212
:100FD00012820091A2031091A3030115110581F45F
:100FE00020813181820F931F2091A0033091A103B2
:100FF0002817390779F5F093A103E093A00371C096
:10100000D80140E050E0AE17BF0750F412962D9182
:101010003C911397AD012115310509F1D901F3CFA9
:101020009D01DA013383228360817181860F971FCE
:101030008217930769F4EC0128813981260F371F45
:101040002E5F3F4F318320838A819B8193838283EC
:10105000452B29F4F093A303E093A20342C0139617
:10106000FC93EE931297ED01499159919E01240F43
:10107000351FE217F30771F480819181840F951F6A
:10108000029611969C938E938281938113969C93E2
:101090008E931297E0E0F0E0D80112968D919C912A
:1010A0001397009719F0F8018C01F6CF8D919C9160
:1010B00098012E5F3F4F820F931F2091A003309124
:1010C000A1032817390769F4309729F41092A30374
:1010D0001092A20302C0138212821093A103009304
:1010E000A003DF91CF911F910F910895283008F050
:1010F00027E03327DA01990F311D87FD91600096B3
:101100006105710539F432602E5F3D9330E32A9515
:10111000E1F708959F3F30F080387105610509F0CF
:101120003C5F3C5F3D93913008F08068911DDF93F8
:10113000CF931F930F93FF92EF92192F987F96955D
:10114000E92F96959695E90FFF27EA5BFE4F9927C1
:101150003327EE24FF24A701E701059008940794A4
:1011600028F4360FE71EF81E491F511D660F771F22
:10117000881F991F0694A1F70590079428F4E70E9D
:10118000F81E491F561FC11D770F881F991F661F24
:101190000694A1F70590079428F4F80E491F561FEE
:1011A000C71FD11D880F991F661F771F0694A1F7CF
:1011B0000590079420F4490F561FC71FD81F990F99
:1011C000661F771F881F0694A9F7849110951770E2
:1011D00041F0D695C79557954795F794E7941A959A
:1011E000C1F7ECEEF0E0689415901591359165919A
:1011F000959105907FE27395E118F10A430B560B28
:10120000C90BD009C0F7E10CF11E431F561FC91FBF
:10121000D01D7EF4703311F48A95E6CFE894015026
:1012200030F0080F0AF40027021708F4202F239546
:10123000022F7A3328F079E37D932A95E9F710C0DD
:101240007D932A9589F60694979567953795179516
:101250001794E118F10A430B560BC90BD00998F00B
:1012600023957E9173957A3308F070E37C93201375
:10127000B8F77E9170617D9330F0839571E37D9333
:1012800070E32A95E1F71124EF90FF900F911F91E1
:10129000CF91DF91992787FD90950895FC010590E6
:1012A000615070400110D8F7809590958E0F9F1F68
:1012B0000895FC016150704001900110D8F78095AD
:1012C00090958E0F9F1F08950F931F93CF93DF93D9
:1012D000FB01238121FD03C08FEF9FEF28C022FF78
:1012E00016C046815781248135814217530744F443
:1012F000A081B1819D012F5F3F4F318320838C936B
:10130000268137812F5F3F4F3783268310C0EB0143
:10131000092F182F0084F185E02D1995892BE1F60E
:101320008E819F8101969F838E83812F902FDF91E5
:10133000CF911F910F9108950F931F93CF93DF9338
:10134000CDB7DEB72E970FB6F894DEBF0FBECDBF78
:101350008C0186E08C831A8309838FEF9FE79E833D
:101360008D83CE0101960E9477032F813885F80185
:10137000E20FF31F10822E960FB6F894DEBF0FBE59
:10138000CDBFDF91CF911F910F910895FA01AA2748
:10139000283051F1203181F1E8946F936E7F6E5FB8
:1013A0007F4F8F4F9F4FAF4FB1E03ED0B4E03CD066
:1013B000670F781F891F9A1FA11D680F791F8A1F49
:1013C000911DA11D6A0F711D811D911DA11D20D0B0
:1013D00009F468943F912AE0269F11243019305D6A
:1013E0003193DEF6CF010895462F4770405D41935B
:1013F000B3E00FD0C9F7F6CF462F4F70405D4A33A8
:1014000018F0495D31FD4052419302D0A9F7EACF6F
:10141000B4E0A6959795879577956795BA95C9F79E
:1014200000976105710508959B01AC010A2E069491
:101430005795479537952795BA95C9F7620F731F4A
:0C144000841F951FA01D0895F894FFCF95
:10144C000000A40320002F25642F00494E495400AE
:08145C002F25732F0025640009
:00000001FF
