:100000000C9411010C9432010C9432010C943201C5
:100010000C9432010C9432010C9432010C94320194
:100020000C9432010C9432010C9432010C94320184
:100030000C9432010C9432010C9432010C94320174
:100040000C9432010C9432010C9432010C94320164
:100050000C9432010C9432010C9432010C94320154
:100060000C9432010C9434010C946B010C94320109
:100070000C9432010C9432010C9432010C94320134
:100080000C9432010C9432010C9432010C94320124
:100090000C9432010C9432010C9432010C94320114
:1000A0000C9432010C9432010C9432010C94320104
:1000B0000C9432010C9432010C9432010C943201F4
:1000C0000C9432010C9432010C9432010C943201E4
:1000D0000C9432010C9432010C9432010C943201D4
:1000E0000C9432016E616E00696E66004E414E499D
:1000F0004E495459494E46CDCCCC3D0AD7233C17E6
:10010000B7D13877CC2B329595E6241FB14F0A0032
:100110000020410000C84200401C4620BCBE4CCA22
:100120001B0E5AAEC59D7400407A10F35A00A0729F
:100130004E18090010A5D4E80000E8764817000022
:10014000E40B54020000CA9A3B000000E1F50500F0
:100150000080969800000040420F000000A0860139
:10016000000000102700000000E803000000006409
:1001700000000000000A0000000000010000000074
:10018000002C76D888DC674F0823DFC1DFAE59E149
:10019000B1B796E5E3E453C63AE651997696E8E6B8
:1001A000C28426EB898C9B62ED407C6FFCEFBC9C8B
:1001B0009F40F2BAA56FA5F490055A2AF75C936B9D
:1001C0006CF9676DC11BFCE0E40D47FEF520E6B558
:1001D00000D0ED902E0300943577050080841E0832
:1001E0000000204E0A000000C80C333333330F9850
:1001F0006E12831141EF8D2114893BE65516CFFE17
:10020000E6DB18D1844B381BF77C1D901DA4BBE4A2
:1002100024203284725E228100C9F124ECA1E53DE4
:10022000270011241FBECFEFD1E2DEBFCDBF00E01B
:100230000CBF12E0A0E0B2E0ECEEFEE100E00BBF8C
:1002400002C007900D92A63CB107D9F714E0A6ECC6
:10025000B2E001C01D92A336B107E1F70E941D096B
:100260000C94740F0C9400001F920F920FB60F9213
:1002700011240BB60F922F933F934F935F938F935D
:100280009F93EF93FF932091C0003091C600287197
:100290008091C8028F5F90E04091C70250E08417C0
:1002A000950739F08093C802FC01E553FD4F308378
:1002B00001C022E02093C602FF91EF919F918F91A0
:1002C0005F914F913F912F910F900BBE0F900FBEFA
:1002D0000F901F9018951F920F920FB60F92112436
:1002E0000BB60F928F939F93EF93FF939091CA0257
:1002F0008091C902981779F08091C90290E0019627
:100300008F7799278093C902FC01E553FC4F8081C8
:100310008093C60005C08091C1008F7D8093C1008D
:10032000FF91EF919F918F910F900BBE0F900FBE99
:100330000F901F9018951092CA021092C902109245
:10034000C8021092C70297FF04C022E02093C000A9
:100350009F779093C5008093C40088E98093C10083
:1003600086E08093C20008959091C8028091C702F0
:10037000981791F08091C7028F5F90E08093C70239
:10038000FC01E553FD4F20818091C60290E0982F3B
:100390008827820F911D089580E091E00895909143
:1003A000C8028091C702981779F0E091C702EF5F09
:1003B000F0E0E553FD4F20818091C60290E0982F38
:1003C0008827820F911D089580E091E00895209183
:1003D000CA0230E02F5F3F4F2F7733274091C90289
:1003E00050E024173507D1F3F901E553FC4F808322
:1003F0002093CA028091C10080628093C100089559
:10040000CF93DF93EC018991882319F00E94E701D3
:10041000FACFDF91CF910895CF93DF93FC018491C0
:10042000EF012196882321F00E94E701FE01F7CF1A
:10043000DF91CF9108958091C8029091C702891BE6
:1004400090E008958091C7028093C8020895CF92EA
:10045000DF92EF92FF920F931F93CF93DF93CDB76D
:10046000DEB7CE010C96FC01C190D1907F0190E0E7
:10047000292F30E0F601E20FF31F8081882311F06D
:100480009F5FF6CFC901880F991F0E945A098C01FE
:10049000A701B6010E94B60DC8010E940002C80162
:1004A0000E94EF09DF91CF911F910F91FF90EF9084
:1004B000DF90CF900895789483E390E00E949B01B1
:1004C00010924D0410924C0410924B04E0E0F0E0C6
:1004D00082E08583148210821182128213828BE063
:1004E00092E09F938F9380E192E09F938F930E947D
:1004F00027020F900F900F900F9081E00895CF92F8
:10050000DF92EF92FF920F931F93CF93DF9300D070
:10051000CDB7DEB7CE0101967C0100E010E06C01A2
:100520000E941B02892B31F4EFE1FEE43197F1F7D1
:1005300000C000000E94B401F70181937F018D3259
:1005400029F4F601E00FF11F108205C00F5F1F4F65
:100550000330110529F78981833569F150F484341A
:1005600029F18534C1F581E080934D041F928AED15
:1005700034C0843531F1863571F5E0914B04F0914A
:100580004C0483818F9382818F9381818F938081AB
:100590008F9386E092E09F938F930E9427020F90A3
:1005A0000F900F900F900F900F9022C010924D045B
:1005B0001F928BED12C0E0914B04F0914C048481AA
:1005C00005C0E0914B04F0914C0485811F928F93FC
:1005D00085E192E005C01F928FEE8F9383EC92E04D
:1005E0009F938F930E9427020F900F900F900F9070
:1005F0000F900F900F90DF91CF911F910F91FF906F
:10060000EF90DF90CF900C9422028FB7F894389A35
:100610004098E7E6F1E03197F1F700C00000409A1A
:10062000F0EAFA95F1F78FBF0895811102C00C949A
:1006300005038FB7F894389A40989AE19A95F1F7A4
:1006400000C0409A90EA9A95F1F78FBF08959FB73E
:10065000F894389A40982AE02A95F1F700C0389823
:100660008AE38A95F1F700C086B181702AEF2A9556
:10067000F1F700C09FBF08959FB7F894389A40984B
:10068000EFECF7E03197F1F700C000003898E7ECA5
:10069000F0E03197F1F700C0000086B180958170DD
:1006A000EFECF7E03197F1F700C000009FBF08952D
:1006B000CF93DF93D82FC8E08D2F81700E94150350
:1006C000D695C150C9F785E08A95F1F70000DF9112
:1006D000CF910895AF92BF92CF92DF92EF92FF92A7
:1006E0000F931F93CF93DF93EC018B010E943C0388
:1006F00080EF0E945803A12CD12C88EFC82EEE2445
:10070000E394F12C0E942703B82EBB0C0E94270310
:100710008B0DED2DE695E695E6952D2DEC9D200DA6
:100720001124823081F4CE018E0F911DFC01C7018E
:1007300001C0880F2A95EAF79081890F808381E0B4
:100740000E9415032CC0813041F1811131C0A110EC
:1007500024C00115110509F1F0E0D801AE0FBF1F4B
:100760008C9190E0022E02C0959587950A94E2F74D
:1007700080FD0EC0EC0FFD1FC70101C0880F2A9538
:10078000EAF79081890F808381E00E94150302C0FF
:100790000E940503AA24A39402C00E940503D394D7
:1007A00090E4D912AFCF81E0AA2019F080E001C017
:1007B00082E0DF91CF911F910F91FF90EF90DF903A
:1007C000CF90BF90AF9008951F93CF93DF93C0E079
:1007D000D0E010E00E942703282F0C2E01C0220F2A
:1007E0000A94EAF7120F2196C830D10599F7812FA4
:1007F000DF91CF911F910895389A409A0895EF9212
:10080000FF920F931F93CF93DF938C010E943C03C1
:1008100085E50E945803C0E0D8EFEE24E394F12C64
:100820009C2F9695969596958C2F9D9F800D1124C3
:10083000970101C0220F8A95EAF7F801E90FF11D2F
:10084000808182230E941503CF5FC03449F7DF9176
:10085000CF911F910F91FF90EF9008958CEC0C9425
:10086000580360E070E08EE494E00E946A038130F7
:1008700021F48093560480E00895823011F082E0E4
:10088000089581E008958EE494E00895EF92FF9238
:100890001F93CF93DF931F92CDB7DEB7182F7C0144
:1008A0008E2D811B861740F4F70181917F016983AA
:1008B0000E9458036981F4CF0F90DF91CF911F916F
:1008C000FF90EF900895EF92FF921F93CF93DF93E5
:1008D0001F92CDB7DEB7182F7C018E2D811B861796
:1008E00040F469830E94E403F70181937F016981E9
:1008F000F4CF0F90DF91CF911F91FF90EF9008956B
:10090000CF93C82F611105C08C2F0E94580381E03E
:1009100004C00E943C038111F7CFCF91089570E08D
:100920009B01382BC9012227387F232B29F0919571
:10093000819591096DE201C06BE2AC0124E056950E
:1009400047952A95E1F78F709927E1E7F2E08E9FAE
:1009500090018F9F300D9E9F300D1124742FC9017F
:100960000895EF92FF920F931F93CF930E943C0341
:100970008823D1F10E943104813091F028F0823037
:1009800091F480E492E002C08AE192E00E94560D68
:100990000EE414E0C0E085E8E82E82E0F82E06C000
:1009A0008BE292E0F3CF86E692E0F0CFF8018191FE
:1009B0008F011F928F93FF92EF920E943C0D0F9038
:1009C0000F900F900F90C73029F489E292E00E94B7
:1009D000560D04C08AE390E00E94500DCF5FC830EE
:1009E00029F788E892E002C084EA92E0CF911F9153
:1009F0000F91FF90EF900C94560DFF920F931F9361
:100A0000CF93DF93CDB7DEB7A0970FB6F894DEBFD4
:100A10000FBECDBFF62E8E010F5F1F4F2EE1F801E6
:100A200011922A95E9F79F938F931F927F9380EC01
:100A300092E09F938F931F930F930E94860DBE01A8
:100A4000615E7F4FC8010E94870A0FB6F894DEBF2F
:100A50000FBECDBF3DE2F31201C09058A0960FB675
:100A6000F894DEBF0FBECDBFDF91CF911F910F91E4
:100A7000FF900895CF93DF93CDB7DEB729970FB6D8
:100A8000F894DEBF0FBECDBF61E08CEC0E94800405
:100A9000811105C066EF7FE38CE196EC20C084E411
:100AA0000E9458032FEF89E698E121508040904042
:100AB000E1F700C0000061E08CEC0E948004882314
:100AC00049F38EEB0E94580369E0CE0101960E9423
:100AD000630469818A810E948F040E94FD04299623
:100AE0000FB6F894DEBF0FBECDBFDF91CF91089552
:100AF0002F923F924F925F926F927F928F929F922E
:100B0000AF92BF92CF92DF92EF92FF920F931F931B
:100B1000CF93DF93CDB7DEB763970FB6F894DEBF00
:100B20000FBECDBF6C014B012A01FC01178216825A
:100B3000838181FF43C3AE014F5F5F4F3A01F601EE
:100B40009381F40193FD859193FF81914F01882357
:100B500009F430C3853239F493FD859193FF819177
:100B60004F01853239F4B60190E00E94040D520124
:100B70002501E5CF10E0F12C20E02032A0F48B32EB
:100B800069F030F4803259F0833269F420612CC06E
:100B90008D3239F0803339F4216026C02260246020
:100BA00023C0286021C027FD27C030ED380F3A3020
:100BB00078F426FF06C0FAE01F9F300D1124132F92
:100BC00013C04AE0F49E300D1124F32E20620CC0B5
:100BD0008E3221F426FDEEC2206406C08C3611F45C
:100BE000206802C0883641F4F40193FD859193FF9B
:100BF00081914F018111C1CF9BEB980F933018F475
:100C00002061805E06C09BE9980F933008F071C1A7
:100C10002F7E26FF16E02F73322E853619F42064BE
:100C2000322E08C0863621F4F22FF0683F2E02C023
:100C30001111115037FE07C01C3350F4EE24E39419
:100C4000E10E27E00BC0183038F027E017E005C0B0
:100C500027E04CE3E42E02C0212FE12C520144E0B6
:100C6000A40EB11CF20160817181828193810E2DED
:100C7000A3010E94F60B2C01098100FF02C003FFB3
:100C800007C031FC08C032FE09C030E2232E07C085
:100C90002DE2222E04C09BE2292E01C0212C802FA0
:100CA0008C7019F0211068C2A8C237FE0FC0E40C86
:100CB00004FF04C08A81813309F4EA941E1474F598
:100CC000F8E0FE1578F588E0E82E2CC036FC2AC046
:100CD000812F90E0841595059CF02CEF42162FEFA4
:100CE000520674F0432D4068342E0AC0E2E0F0E072
:100CF000EC0FFD1FE10FF11D8081803319F41150BD
:100D00001111F4CF37FE0EC0EE24E394E10E812FD3
:100D100090E0481659062CF4141904C0EE24E3940C
:100D200001C010E037FE06C01414150434F4C201EB
:100D3000019605C085E090E002C081E090E02110BE
:100D40000196112331F0212F30E02F5F3F4F820FAA
:100D5000931F2F2D30E08217930714F4F81A01C067
:100D6000F12C832D897049F4FF2039F0B60180E21F
:100D700090E00E94040DFA94F7CF222029F0B601EA
:100D8000822D90E00E94040D33FC09C0FF2039F051
:100D9000B60180E390E00E94040DFA94F7CF37FE8D
:100DA0005AC0942D852D57FE02C090E080E0292E78
:100DB000382E20E030E0A2014E1951095D874C87A2
:100DC000A201421953095F874E87612F70E04427C3
:100DD0005527461B570B598B488B5FEF2516350659
:100DE00049F4B6018EE290E02A8B3B8B0E94040D01
:100DF0003B892A89421453046CF04C855D85421569
:100E0000530544F4EE85FF85E20FF31FE60DF71D51
:100E1000818101C080E351E0251A31082F5F3F4FE7
:100E200048895989241635064CF0B60190E02A8B82
:100E30003B8B0E94040D2A893B89CFCF24143504B3
:100E400039F49A81963318F4953311F404FF81E351
:100E5000B60190E04BC08A81813309F00F7EB60164
:100E600090E00E94040D111105C034FC18C085E605
:100E700090E017C0B6018EE290E00E94040D82E07F
:100E8000EE24E394E80EF301E80FF11D8081B60132
:100E900090E00E94040D11508E2D91F7E6CF85E46D
:100EA00090E0B6010E94040D57FC05C041145104A6
:100EB00039F404FF05C05194419451088DE201C0FA
:100EC0008BE2B60190E00E94040D80E39AE049169F
:100ED00051042CF08F5F5AE0451A5108F7CFB60144
:100EE00090E00E94040DB601C201C0960E94040D5C
:100EF00057C1833631F0833779F0833509F058C014
:100F000021C05201E2E0AE0EB11CF2018081898362
:100F100001E010E0230114C05201F2E0AF0EB11C59
:100F2000F2014080518026FF03C0612F70E002C0B3
:100F30006FEF7FEFC2012A8B0E94F90C8C012A8986
:100F40002F7715C05201F2E0AF0EB11CF2014080C4
:100F5000518026FF03C0612F70E002C06FEF7FEF6A
:100F6000C2012A8B0E94EE0C8C012A892068322E45
:100F700023FD1AC08F2D90E008171907A8F4B601B9
:100F800080E290E00E94040DFA94F4CFF20137FC65
:100F9000859137FE81912F01B60190E00E94040DEA
:100FA000F110FA94015011090115110579F7F8C0F3
:100FB000843611F0893659F5520127FF09C0F4E053
:100FC000AF0EB11CF20160817181828193810AC0F0
:100FD000F2E0AF0EB11CF20160817181882777FDCC
:100FE0008095982F2F76322E97FF09C09095809587
:100FF000709561957F4F8F4F9F4F2068322E2AE06A
:1010000030E0A3010E94E00DE82EE6183FC0022F59
:10101000853721F40F7E2AE030E01DC0097F8F362E
:1010200091F018F4883559F0C5C0803719F0883729
:1010300011F0C0C0006104FF09C0046007C024FFB4
:1010400008C0066006C028E030E005C020E130E0BE
:1010500002C020E132E0520107FF09C0F4E0AF0E08
:10106000B11CF201608171818281938108C0F2E03C
:10107000AF0EB11CF2016081718180E090E0A301AC
:101080000E94E00DE82EE6180F77302E36FE0BC0DA
:10109000332D3E7FE11650F434FE0AC032FC08C006
:1010A000332D3E7E05C00E2D332D03C00E2D01C005
:1010B000012F34FF0CC0FE01EE0DF11D8081803345
:1010C00011F4397E08C032FF05C00E5F04C0832FC3
:1010D000867809F00F5F33FD13C030FF06C01E2D68
:1010E0000F1518F41F0D101B0F2D0F1568F4B60106
:1010F00080E290E03B8B0E94040D0F5F3B89F5CFAF
:101100000F1510F4F01A01C0F12C34FF12C0B60113
:1011100080E390E03B8B0E94040D3B8932FF17C0B7
:1011200031FD03C088E790E002C088E590E0B60199
:101130000CC0832F867859F031FF02C08BE201C0CA
:1011400080E237FD8DE2B60190E00E94040DE116C9
:1011500038F4B60180E390E00E94040D1150F7CFFF
:10116000EA94F301EE0DF11D8081B60190E00E943A
:10117000040DE110F5CF14C0F4E0FF1558F584E03C
:10118000F81A33FE1EC0211026C003FF2AC004EE49
:1011900010E0F32DF0713F2EF8018491811124C0ED
:1011A000FF2009F4E5CCB60180E290E00E94040D36
:1011B000FA94F6CFF6018681978126C08FEF9FEFD4
:1011C00023C0B60180E290E00E94040DFA94F11071
:1011D000F8CFD9CFF12CB601822D90E00E94040DFA
:1011E000D4CF08EE10E0D5CF31108052B60190E098
:1011F0000E94040D0F5F1F4FCFCF23E02F1510F477
:1012000083E0BECFF12CC1CF63960FB6F894DEBF5A
:101210000FBECDBFDF91CF911F910F91FF90EF9047
:10122000DF90CF90BF90AF909F908F907F906F9006
:101230005F904F903F902F9008950F931F93CF93FF
:10124000DF930E945B02882371F1C6E0D2E0009137
:101250004B0410914C040E943A05F801608371839D
:10126000828393830E941B02892B11F00E947F02CC
:1012700080914D04882359F3E0914B04F0914C0484
:1012800083818F9382818F9381818F9380818F93CC
:10129000DF93CF930E9427020F900F900F900F9033
:1012A0000F900F90D4CF80E090E0DF91CF911F910D
:1012B0000F910895CF93DF938230910510F482E06F
:1012C00090E0E0915904F0915A0420E030E0C0E051
:1012D000D0E0309711F14081518148175907C0F093
:1012E0004817590761F482819381209719F09B83F5
:1012F0008A832BC090935A048093590426C02115E9
:10130000310519F04217530718F49A01BE01DF01A5
:10131000EF010280F381E02DDCCF2115310509F1C9
:10132000281B390B2430310590F412968D919C9135
:1013300013976115710521F0FB019383828304C02B
:1013400090935A0480935904FD01329644C0FD01E4
:10135000E20FF31F81939193225031092D933C9317
:101360003AC02091570430915804232B41F4209126
:1013700002023091030230935804209357042091C5
:101380000002309101022115310541F42DB73EB71D
:101390004091040250910502241B350BE091570443
:1013A000F0915804E217F307A0F42E1B3F0B281707
:1013B000390778F0AC014E5F5F4F2417350748F0CE
:1013C0004E0F5F1F5093580440935704819391939D
:1013D00002C0E0E0F0E0CF01DF91CF9108950F93DC
:1013E0001F93CF93DF93009709F48CC0FC013297D1
:1013F000138212820091590410915A0401151105AB
:1014000081F420813181820F931F20915704309104
:1014100058042817390779F5F0935804E0935704D6
:1014200071C0D80140E050E0AE17BF0750F41296EB
:101430002D913C911397AD012115310509F1D90189
:10144000F3CF9D01DA013383228360817181860F9E
:10145000971F8217930769F4EC0128813981260FC1
:10146000371F2E5F3F4F318320838A819B81938377
:101470008283452B29F4F0935A04E093590442C027
:101480001396FC93EE931297ED01499159919E01A9
:10149000240F351FE217F30771F480819181840FC7
:1014A000951F029611969C938E9382819381139639
:1014B0009C938E931297E0E0F0E0D80112968D9104
:1014C0009C911397009719F0F8018C01F6CF8D913C
:1014D0009C9198012E5F3F4F820F931F20915704DC
:1014E000309158042817390769F4309729F410927D
:1014F0005A041092590402C01382128210935804A5
:1015000000935704DF91CF911F910F9108956F922F
:101510007F928F929F92AF92BF92CF92DF92EF9283
:10152000FF920F931F93CF93DF93EC017B01611523
:10153000710519F0DB018D939C938E010F5F1F4F96
:101540007880872D90E00E94CE0C892B11F0E80165
:10155000F4CFBDE27B1205C00F5F1F4F7980C1E061
:1015600008C0EBE27E1204C08E010E5F1F4F79802F
:10157000C0E06801F1E0CF1AD10843E050E064EF29
:1015800070E0C6010E94D60C892BF1F4680122E0BC
:10159000C20ED11C45E050E06FEE70E0C6010E9423
:1015A000D60C892B21F4680187E0C80ED11CE11408
:1015B000F10419F0D701CD92DC92C111FFC060E0B7
:1015C00070E080E89FE703C143E050E06CEE70E01C
:1015D000C6010E94D60C892B51F4E114F10409F4E0
:1015E000F2C00E5F1F4FF70111830083ECC068014A
:1015F00060E070E0CB0100E010E0F601D0EDD70D27
:10160000DA3058F52C2F2260622E2C2F2870C2FF62
:1016100005C0211128C00F5F1F4F25C0222311F0E4
:1016200001501109A5E0B0E09B01AC010E945A0FE6
:101630004B015C01880C991CAA1CBB1CC501B401A0
:101640006D0F711D811D911D6839A9E97A078A07FF
:10165000A9E19A0740F0C66005C0DE3F51F4C3FD22
:1016600044C0C8606C2EBFEFCB1ADB0A7080C62D59
:10167000C4CF2D2F2F7D2531C1F540814D3211F47E
:10168000C06106C04B3221F0319621E030E006C047
:101690003296D60111964C9122E030E0A0EDA40FD5
:1016A000AA3018F0E21BF30B20C040E050E04038B5
:1016B000BCE05B075CF49A01220F331F220F331F3B
:1016C000420F531F440F551F4A0F511D3196DF0122
:1016D00011972C91A0EDA20FAA3048F3C4FF03C0CC
:1016E000519541955109040F151FC1FF07C0E11421
:1016F000F10421F03197D701ED93FC930E94420E43
:10170000C370C33019F06B017C0106C06B017C0112
:10171000F7FAF094F7F8F09420E030E0A901C7015F
:10172000B6010E943E0E882309F445C017FF06C08B
:10173000119501951109CBE0D1E002C0C3E2D1E0DF
:101740005E01B8E1AB1AB1084601BE2DAF2D90E2A3
:10175000E92EF12C0E151F0584F0FE01259135911F
:1017600045915491B4018B2F9A2F0E94A30E4B01E7
:10177000B82FA92F0E191F09EDCF2497F594E794E0
:10178000CA15DB0539F76401EB2EFA2E8E2D880F72
:101790008F2D881F8F3F49F020E030E0A901C7015D
:1017A000B6010E943E0E811106C082E290E0909345
:1017B0005C0480935B04C701B60109C060E070E07F
:1017C00080E89FEF04C060E070E080EC9FE7DF916D
:1017D000CF911F910F91FF90EF90DF90CF90BF902E
:1017E000AF909F908F907F906F900895283008F071
:1017F00027E03327DA01990F311D87FD91600096AC
:101800006105710539F432602E5F3D9330E32A950E
:10181000E1F708959F3F30F080387105610509F0C8
:101820003C5F3C5F3D93913008F08068911DDF93F1
:10183000CF931F930F93FF92EF92192F987F969556
:10184000E92F96959695E90FFF27EF57FE4F9927B9
:101850003327EE24FF24A701E7010590089407949D
:1018600028F4360FE71EF81E491F511D660F771F1B
:10187000881F991F0694A1F70590079428F4E70E96
:10188000F81E491F561FC11D770F881F991F661F1D
:101890000694A1F70590079428F4F80E491F561FE7
:1018A000C71FD11D880F991F661F771F0694A1F7C8
:1018B0000590079420F4490F561FC71FD81F990F92
:1018C000661F771F881F0694A9F7849110951770DB
:1018D00041F0D695C79557954795F794E7941A9593
:1018E000C1F7E7E2F1E068941590159135916591A3
:1018F000959105907FE27395E118F10A430B560B21
:10190000C90BD009C0F7E10CF11E431F561FC91FB8
:10191000D01D7EF4703311F48A95E6CFE89401501F
:1019200030F0080F0AF40027021708F4202F23953F
:10193000022F7A3328F079E37D932A95E9F710C0D6
:101940007D932A9589F6069497956795379517950F
:101950001794E118F10A430B560BC90BD00998F004
:1019600023957E9173957A3308F070E37C9320136E
:10197000B8F77E9170617D9330F0839571E37D932C
:1019800070E32A95E1F71124EF90FF900F911F91DA
:10199000CF91DF91992787FD90950895911136C2D7
:1019A000803219F089508550D0F70895FB01DC0191
:1019B0004150504088F08D9181341CF08B350CF4EF
:1019C000805E659161341CF06B350CF4605E861BA3
:1019D000611171F3990B0895881BFCCFFC010590F0
:1019E000615070400110D8F7809590958E0F9F1F21
:1019F0000895FC016150704001900110D8F7809566
:101A000090958E0F9F1F08950F931F93CF93DF9391
:101A1000FB01238121FD03C08FEF9FEF28C022FF30
:101A200016C046815781248135814217530744F4FB
:101A3000A081B1819D012F5F3F4F318320838C9323
:101A4000268137812F5F3F4F3783268310C0EB01FC
:101A5000092F182F0084F185E02D1995892BE1F6C7
:101A60008E819F8101969F838E83812F902FDF919E
:101A7000CF911F910F910895CF93DF93CDB7DEB72C
:101A8000AE014A5F5F4FFA0161917191AF018091A0
:101A90005F04909160040E947805DF91CF910895D2
:101AA00060915F04709160040C94040D0F931F9378
:101AB000CF93DF93E0915F04F0916004238121FFD5
:101AC0001BC08C01D0E0C0E0F80181918F016091D2
:101AD0005F0470916004DB011896ED91FC911997F9
:101AE000882331F01995892B79F3DFEFCFEFECCF15
:101AF0008AE01995892B19F08FEF9FEF02C08D2F87
:101B00009C2FDF91CF911F910F9108950F931F93F9
:101B1000CF93DF93CDB7DEB72E970FB6F894DEBF25
:101B20000FBECDBF0E891F8986E08C831A8309837F
:101B30008FEF9FE79E838D83AE01465E5F4F688D7A
:101B4000798DCE0101960E9478052F813885F801A4
:101B5000E20FF31F10822E960FB6F894DEBF0FBE71
:101B6000CDBFDF91CF911F910F9108950F931F93D8
:101B7000CF93DF93CDB7DEB72E970FB6F894DEBFC5
:101B80000FBECDBF8C0186E08C831A8309838FEF53
:101B90009FE79E838D83CE0101960E9478052F8159
:101BA0003885F801E20FF31F10822E960FB6F894D5
:101BB000DEBF0FBECDBFDF91CF911F910F91089572
:101BC000FA01AA27283051F1203181F1E8946F936E
:101BD0006E7F6E5F7F4F8F4F9F4FAF4FB1E03ED014
:101BE000B4E03CD0670F781F891F9A1FA11D680FB2
:101BF000791F8A1F911DA11D6A0F711D811D911DE5
:101C0000A11D20D009F468943F912AE0269F112459
:101C10003019305D3193DEF6CF010895462F4770BD
:101C2000405D4193B3E00FD0C9F7F6CF462F4F7018
:101C3000405D4A3318F0495D31FD4052419302D076
:101C4000A9F7EACFB4E0A69597958795779567951C
:101C5000BA95C9F700976105710508959B01AC011C
:101C60000A2E06945795479537952795BA95C9F743
:101C7000620F731F841F951FA01D089540D008F4A4
:101C800081E00895E89409C097FB3EF49095809513
:101C9000709561957F4F8F4F9F4F9923A9F0F92F32
:101CA00096E9BB279395F695879577956795B795B0
:101CB000F111F8CFFAF4BB0F11F460FF1BC06F5F96
:101CC0007F4F8F4F9F4F16C0882311F096E911C0A8
:101CD000772321F09EE8872F762F05C0662371F0C9
:101CE00096E8862F70E060E02AF09A95660F771FDD
:101CF000881FDAF7880F9695879597F90895990FB9
:101D00000008550FAA0BE0E8FEEF16161706E807C5
:101D1000F907C0F012161306E407F50798F0621BE6
:101D2000730B840B950B39F40A2661F0232B242BBB
:101D3000252B21F408950A2609F4A140A6958FEFDA
:101D4000811D811D08950BD07BC06CD028F071D00F
:101D500018F0952309F05DC062C01124A5C081D0A0
:101D6000A0F3959FD1F3950F50E0551F629FF001AE
:101D7000729FBB27F00DB11D639FAA27F00DB11D07
:101D8000AA1F649F6627B00DA11D661F829F222790
:101D9000B00DA11D621F739FB00DA11D621F839F17
:101DA000A00D611D221F749F3327A00D611D231FED
:101DB000849F600D211D822F762F6A2F11249F573B
:101DC00050408AF0E1F088234AF0EE0FFF1FBB1F5E
:101DD000661F771F881F91505040A9F79E3F5105FD
:101DE00070F017C061C05F3FECF3983EDCF386955E
:101DF00077956795B795F795E7959F5FC1F7FE2BA8
:101E0000880F911D9695879597F9089599278827AA
:101E1000089597F99F6780E870E060E008959FEF6C
:101E200080EC089500240A94161617061806090671
:101E3000089500240A941216130614060506089540
:101E4000092E0394000C11F4882352F0BB0F40F4C8
:101E5000BF2B11F460FF04C06F5F7F4F8F4F9F4F08
:101E6000089557FD9058440F551F59F05F3F71F08A
:101E70004795880F97FB991F61F09F3F79F08795F1
:101E80000895121613061406551FF2CF4695F1DF7A
:101E900008C0161617061806991FF1CF869571050A
:101EA000610508940895E894BB2766277727CB013E
:101EB00097F908950E94650FA59F900DB49F900D0E
:101EC000A49F800D911D11240895A29FB001B39F7E
:101ED000C001A39F700D811D1124911DB29F700D33
:0C1EE000811D1124911D0895F894FFCF7E
:101EEC000000630420002F25662F00494E49540042
:101EFC002F25732F002F25642F003E204275732051
:101F0C0054657374202D204F4B0D003E204572728A
:101F1C006F72212042757373206572726F720D009F
:101F2C003E204572726F7221204D6F726520646580
:101F3C007669636573207468656E20737065636978
:101F4C00666965640D003E204572726F72212055E2
:101F5C006E6B6E6F776E20494E4954206D657373AE
:101F6C006167650D002558003E2049447320636F5E
:101F7C006C6C656374696E67202066696E69736842
:101F8C0065640D00425553204572726F723A204EB3
:101F9C006F20736C6176657320666F756E640D00CF
:061FAC0025642E256400EF
:00000001FF
